:100000000C942A000C9434000C9434000C943400AA
:100010000C9434000C9434000C9434000C94340090
:100020000C9434000C9434000C9434000C94340080
:100030000C9434000C9434000C9434000C94340070
:100040000C9434000C9434000C9434000C94340060
:100050000C94340011241FBECFE5D4E0DEBFCDBF29
:100060000E944B010C948F010C94000084B38F709C
:1000700084BBAA9AA99881E08A95F1F721E0AB9A0E
:10008000822F8A95F1F783B3922F9A95F1F7AB9867
:10009000922F9A95F1F7AB9A922F9A95F1F793B325
:1000A000922F9A95F1F7AB98922F9A95F1F787FDD9
:1000B000E6CFAA9884B3806F84BB0895382F662357
:1000C00011F4A99801C0A99A21E0822F8A95F1F72D
:1000D000AB9A85B3932F907F8F70982B95BB822F0F
:1000E0008A95F1F7AB98822F8A95F1F7AB9A85B391
:1000F0003295307F8F70832B85BB822F8A95F1F7E5
:10010000AB982A95F1F70E9436000895883230F4B2
:1001100061118064806860E00E945E000895EF9243
:10012000FF920F931F93DF93CF9300D000D00F92D5
:10013000CDB7DEB79C018B01FE01319685E0DF0172
:100140001D928A95E9F7FE0135960DC0C9016AE056
:1001500070E00E9468018083C9016AE070E00E943B
:1001600068019B0131972115310581F7BFEF0F3FE2
:100170001B0779F420E030E0AE014F5F5F4F02C013
:100180002F5F3F4FFA01E20FF31F80818823C1F3F5
:1001900004C025E030E0201B310B7E010894E11CF7
:1001A000F11CE20EF31E890109C0F70181917F0164
:1001B000805D61E00E945E000F5F1F4F05301105FA
:1001C000A4F30F900F900F900F900F90CF91DF91AD
:1001D0001F910F91FF90EF900895CF93DF93EC0163
:1001E00004C061E00E945E00219688818823C9F7DF
:1001F000DF91CF9108958CE49DE10197F1F784B3ED
:10020000806F84BBA39AA19AA29A85B38F7085BB95
:10021000AB98AA98A99881E0982F9A95F1F7AB9A94
:10022000AD9A982F9A95F1F7AB988A95F1F70E94BD
:1002300036008FE060E00E945E0088E260E00E948D
:100240005E00089580E687B985EC86B93699FECFC1
:1002500084EC99E00197F1F785B190E0089581E68B
:1002600087B985EC86B93699FECF84EC99E0019781
:10027000F1F785B190E0089589B990BD86E880BD19
:1002800088E18AB908955F9BFECF8CB108955D9B8C
:10029000FECF8CB908951F9383E389B910BC86E81B
:1002A00080BD88E18AB90E94FB008FEF87BB18BA36
:1002B0001ABA1BBA5F9BFECF1CB180E060E00E94BF
:1002C0008600812F90E063E070E00E948F00F2CF03
:1002D00097FB092E07260AD077FD04D00CD006D054
:1002E00000201AF4709561957F4F0895F6F7909568
:1002F00081959F4F0895AA1BBB1B51E107C0AA1F00
:10030000BB1FA617B70710F0A61BB70B881F991FB6
:100310005A95A9F780959095BC01CD010895F89460
:02032000FFCF0D
:00000001FF
