:100000000C942A000C943F000C943F000C943F0089
:100010000C943F000C943F000C943F000C943F0064
:100020000C943F000C943F000C943F000C943F0054
:100030000C943F000C943F000C943F000C943F0044
:100040000C943F000C943F000C943F000C943F0034
:100050000C943F0011241FBECFE5D4E0DEBFCDBF1E
:1000600011E0A0E6B0E0E4ECF5E002C005900D92EE
:10007000A235B107D9F70E9499010C94E0020C94C3
:10008000000084B38F7084BBAA9AA99881E08A95F6
:10009000F1F721E032E0AB9A822F8A95F1F783B332
:1000A000922F9A95F1F7AB98932F9A95F1F7AB9A17
:1000B000922F9A95F1F793B3922F9A95F1F7AB9807
:1000C000932F9A95F1F787FDE6CFAA9884B3806FB6
:1000D00084BB0895282F662311F4A99801C0A99A1A
:1000E00081E08A95F1F7AB9A85B3922F907F8F705C
:1000F000982B95BB92E0892F8A95F1F7AB98892FC1
:100100008A95F1F7AB9A85B32295207F8F70822B69
:1001100085BB892F8A95F1F7AB989A95F1F70E94E4
:1001200041000895883230F461118064806860E095
:100130000E946A000895EF92FF920F931F93DF933E
:10014000CF9300D000D00F92CDB7DEB79C018B01CA
:10015000FE01319685E0DF011D928A95E9F7FE01E7
:1001600035960DC0C9016AE070E00E94B902808333
:10017000C9016AE070E00E94B9029B013197211524
:10018000310581F7BFEF0F3F1B0779F420E030E026
:10019000AE014F5F5F4F02C02F5F3F4FFA01E20F8A
:1001A000F31F80818823C1F304C025E030E0201BC9
:1001B000310B7E010894E11CF11CE20EF31E890153
:1001C00009C0F70181917F01805D61E00E946A00B2
:1001D0000F5F1F4F05301105A4F30F900F900F9084
:1001E0000F900F90CF91DF911F910F91FF90EF90A3
:1001F0000895CF93DF93EC0104C061E00E946A0090
:10020000219688818823C9F7DF91CF91089580E6F0
:100210009AEE0197F1F784B3806F84BBA39AA19AF9
:10022000A29A85B38F7085BBAB98AA98A99881E0F4
:100230008A95F1F7AB9AAD9A82E0982F9A95F1F7EB
:10024000AB988A95F1F70E9441008FE060E00E9430
:100250006A0088E260E00E946A00089581EF8FBD25
:100260008AE08EBD08958ABD68BD089585E08ABD87
:1002700088BD929A939881E088BB08958CE38ABDEB
:1002800088BD929A939881E088BB08958AE58ABDDB
:1002900088BD929A939881E088BB089588E28ABDD0
:1002A00088BD939A929882E088BB08958AE58ABDBA
:1002B00088BD939A929882E088BB089584E18ABDB4
:1002C00088BD929A939818BA08958EE18ABD88BD28
:1002D000929A939882E088BB089584E18ABD88BD94
:1002E00082B382BB82B3837F82BB81E088BB0895E7
:1002F0008EE18ABD88BD939A929881E088BB08956B
:100300008FEF8ABD88BD82B382BB82B3837F82BBFD
:1003100018BA089589B990BD86E880BD88E18AB988
:1003200008955F9BFECF8CB108955D9BFECF8CB985
:1003300008958F929F92AF92BF92CF92DF92EF92E9
:10034000FF920F931F9381B38C6F81BB8FEF87BB9D
:100350000E94070183E389B910BC86E880BD88E16B
:100360008AB981EF8FBD8AE08EBD81E060E00E9496
:100370006A0080E060E00E94920080E690E00E94C7
:10038000F90080E89EE328EC30E0F9013197F1F7BD
:100390000197D9F713C080E060E00E94920080E7E7
:1003A00090E00E94F90080E061E00E9492008FE7F7
:1003B00090E00E94F9005F9BFECF8CB1843359F727
:1003C00081E060E00E946A0080E060E00E949200AC
:1003D0008CE890E00E94F90080E89EE328EC30E091
:1003E000F9013197F1F70197D9F764E3862EDD24FF
:1003F000DA945EE1E52E42E0C42E34E1F32E11E002
:100400002AE5922E98E2A92E05E08CE3B82E8CB84E
:100410005F9BFECF8CB1843309F446C0853370F402
:100420008133F1F0823320F4803309F099C08AC01F
:10043000823311F1833309F093C02AC0873309F462
:100440005AC0883330F48533F1F1863309F088C01F
:1004500046C0883309F45BC0893309F081C063C0AA
:100460000ABD08BD929A939818BB80E060E00E9494
:1004700092008EE990E071C00ABD08BD929A9398EF
:1004800018BB80E060E00E94920081EB90E065C0C4
:10049000BABCB8BC929A939818BB80E060E00E9406
:1004A000920085EC90E059C0DABCD8BC82B382BB24
:1004B00082B3837F82BB18BA80E060E00E94920022
:1004C00088ED90E04AC09ABC98BC939A9298C8BABA
:1004D00080E060E00E94920088EE90E03EC0AABCFE
:1004E000A8BC939A9298C8BA80E060E00E949200FB
:1004F00088EF90E032C0EABCE8BC929A9398C8BA00
:1005000080E060E00E94920089E091E026C0FABCA1
:10051000F8BC929A939818BA80E060E00E9492002A
:100520008BE191E01AC0FABCF8BC82B382BB82B303
:10053000837F82BB18BB80E060E00E9492008EE265
:1005400091E00BC0EABCE8BC939A929818BB80E09B
:1005500060E00E94920080E491E00E94F90057CF91
:10056000DABCD8BC82B382BB82B3837F82BB18BAA9
:100570004ECF97FB092E07260AD077FD04D00CD06A
:1005800006D000201AF4709561957F4F0895F6F714
:10059000909581959F4F0895AA1BBB1B51E107C001
:1005A000AA1FBB1FA617B70710F0A61BB70B881F03
:1005B000991F5A95A9F780959095BC01CD01089592
:0405C000F894FFCFDD
:1005C400496E697469616C6973696E672E2E2E00B9
:1005D4004661756C747920646174612E2E2E0072EC
:1005E4006563657074696F6E2E2E2E00526F636B97
:1005F400206E20526F6C6C2E2E2E21212100202083
:100604004661737420466F727761726420202020E3
:100614000020204D656469756D20466F72776172A4
:1006240064202020002020536C6F7720666F72773F
:1006340061726420202020003E3E3E2053544F50DF
:10064400203C3C3C202020002020536C6F7720422B
:1006540061636B202020200020204D656469756D46
:10066400204261636B20202000202033363020524A
:100674006967687420202020202000202020536CEB
:100684006F77205269676874202020202000202082
:10069400536C6F77204C6566742020202020200046
:1006A40020204C6566742033363020202020202002
:0206B400000044
:00000001FF
